:100D0000015100102D000000000000000000000054
:100D10000000000000012600C10010414C43443196
:100D200036303220636865636B206F6B106420205F
:0E0D30002073747564792075702020202020B7
:100DF800759178759287C28CD2A9D2B9758911E498
:0A0E0800F58CF58AD28C5390F82285
:100DDD00EF1FAA0670011E4A60107C037DE8ED1D11
:0B0DED00AA0470011C4A60E880F42298
:100E12007F38120E497F0C120E497F06120E497F4F
:040E220001020E4972
:0E0E4900C2B2C2B38FA0120E3AD297C2972245
:0E0E5700D2B2C2B38FA0120E3AD297C2972227
:100D7800209505300102D205209405300202D206E2
:100D8800209305300302D207A2959201A294920201
:050D9800A29492032269
:0F0E3A007F197E00EF1FAC0670011E4C70F62270
:03000B00020800E8
:10080000C0E0C0F0C083C082C0D075D000C000C0BE
:1008100001C002C003C004C005C006C007C2AF7556
:100820008CFC758A67120D78055BE55B7002055AD2
:10083000543F703D752606E5264488F5C500000046
:1008400000E5C530E4FB53C5EFAFC6EF75F004A477
:10085000FFAEF0E5BE7C0060047D0180027D00EF0C
:100860002DFFEE3CFEE52625E0242DF8A60608A681
:1008700007D3E55B94F4E55A94015003020A90B261
:100880000430041E0553E553B43C1775530005525C
:10089000E552B43C0D7552000551E551B41803758D
:1008A0005100755A00755B00B2900521532107E590
:1008B0005175F00A842430F547E55175F00A84E556
:1008C000F02430F54875493AE55275F00A84243031
:1008D000F54AE55275F00A84E5F02430F54B754C85
:1008E0003AE55375F00A842430F54DE55375F00A66
:1008F00084E5F02430F54E30040875493A754C3AD9
:100900008006754920754C20C28EC2ABC2B975896C
:1009100011758D00758B0030B4FD000000000000E3
:100920000000000030B405D28E20B4FDAF8DEFFE84
:10093000AD8B7C00E42DFFEC3EFEE48F408E3FF556
:100940003EF53DC28EAB40AA3FA93EA83DFF7E12B8
:10095000FD120B8D8F578E568D558C54E47B0AFA01
:10096000F9F8120B8DEF2430F56475652EE47B0ADF
:10097000FAF9F8AF57AE56AD55AC54120B8DEB24C7
:1009800030F56675673075686B756948756A5A75B4
:100990006B20AE39AF3A7C007D3C120AF0EE1313A7
:1009A000543FFFE48F2CF52BF52AF5297B0AFAF941
:1009B000F8AE2BAD2AAC29120B8DEF2430F56C75F7
:1009C0006D2EE47B0AFAF9F8AF2CAE2BAD2AAC29D8
:1009D000120B8DEB2430F56E756F56AF8DEFFEADBB
:1009E0008B7C00E42DFFEC3EFEC3EF9540F525EE39
:1009F000953FF524E4953EF523EC953DF522AF4077
:100A0000AE3FAD3EAC3DE47B0AFAF9F8120B8D8F98
:100A1000408E3F8D3E8C3DE47F12FEFDFCAB25AA4F
:100A200024A923A822120B02AB40AA3FA93EA83D4D
:100A3000120B8D8F638E628D618C60754170754273
:100A400068754369E47B64FAF9F8120B8DEF243082
:100A5000F544E47B0AFAF9F8AF63AE62AD61AC60CD
:100A6000120B8DE47B0AFAF9F8120B8DEB2430F5AA
:100A700045E47B0AFAF9F8AF63AE62AD61AC60128F
:100A80000B8DEB2430F546754720754820754920BD
:100A9000052753273FE527B40A057F80120E49E555
:100AA00027C4540FFFBF010CE527540F2441F8E67B
:100AB000FF120E57E527B42A057FC0120E49E5271D
:100AC000C4540FFFBF030CE527540F2464F8E6FF5E
:100AD000120E57D2AFD007D006D005D004D003D025
:100AE00002D001D000D0D0D082D083D0F0D0E0327C
:100DBE00300507A290B39290C205300607A291B3F8
:0F0DCE009291C206300707A292B39292C20722F7
:100CAB0075415475426975436D754465754572752B
:100CBB00463A75473075483075493A754A30754B29
:100CCB0030754C3A754D30754E30754F2075502040
:100CDB0075645675656F75666C7567747568617547
:100CEB006967756A65756B3A756C30756D30756EC5
:050CFB0030756F30228E
:100D9D00E4F5D8F5E9F5F975D90175DA31D2B40074
:100DAD0000000020B4FD30B4FDD2DEC2DFC2D80099
:010DBD002213
:03003B00020D3F74
:100D3F00C2AF30DF0DC2DF30B406055D055880024B
:100D4F00055830D821C2D820B40885EA5F85FA5EED
:100D5F008014C2DE85EA5C85FA5975570A7556000C
:090D6F00755500755400D2AF3235
:100E2600120DF87F647E00120DDD120E12120CAB4D
:040E3600D2AF80FEB9
:03000000020C1FD0
:0C0C1F00787FE4F6D8FD758173020C6646
:100AF000EF8DF0A4A8F0CF8CF0A428CE8DF0A42E1A
:020B0000FE22D3
:100B0200E88FF0A4CC8BF0A42CFCE98EF0A42CFC92
:100B12008AF0EDA42CFCEA8EF0A4CDA8F08BF0A410
:100B22002DCC3825F0FDE98FF0A42CCD35F0FCEB6F
:100B32008EF0A4FEA9F0EB8FF0A4CFC5F02ECD3934
:0F0B4200FEE43CFCEAA42DCE35F0FDE43CFC22A1
:100B510075F008758200EF2FFFEE33FECD33CDCC5B
:100B610033CCC58233C5829BED9AEC99E5829840DE
:100B71000CF582EE9BFEED9AFDEC99FC0FD5F0D6BB
:100B8100E4CEFBE4CDFAE4CCF9A88222B800C1B9E5
:100B91000059BA002DEC8BF084CFCECDFCE5F0CB23
:100BA100F97818EF2FFFEE33FEED33FDEC33FCEB5C
:100BB10033FB10D703994004EB99FB0FD8E5E4F917
:100BC100FA227818EF2FFFEE33FEED33FDEC33FC04
:100BD100C933C910D7059BE99A4007EC9BFCE99AF8
:100BE100F90FD8E0E4C9FAE4CCFB2275F010EF2F3D
:100BF100FFEE33FEED33FDCC33CCC833C810D7073D
:100C01009BEC9AE899400AED9BFDEC9AFCE899F877
:0E0C11000FD5F0DAE4CDFBE4CCFAE4C8F9220A
:100C2B00020E26E493A3F8E493A34003F68001F2AB
:100C3B0008DFF48029E493A3F85407240CC8C333CA
:100C4B00C4540F4420C8834004F456800146F6DF99
:100C5B00E4800B0102040810204080900D00E47E1C
:100C6B00019360BCA3FF543F30E509541FFEE4938E
:100C7B00A360010ECF54C025E060A840B8E493A355
:100C8B00FAE493A3F8E493A3C8C582C8CAC583CA80
:100C9B00F0A3C8C582C8CAC583CADFE9DEE780BE38
:010D3E0000B4
:00000001FF
